:10000000BFC00000D8C00000D6C00000D4C00000AF
:10001000D2C00000D0C00000CEC00000CCC00000A4
:10002000CAC00000C8C00000B0C200001AC300006F
:10003000C2C00000C0C00000BEC00000BCC00000C4
:10004000BAC00000B8C00000B6C00000B4C00000D4
:10005000B2C00000B0C00000AEC00000ACC00000E4
:10006000AAC00000A8C00000A6C00000A4C00000F4
:10007000A2C00000A0C000009EC000009CC0000004
:100080009AC0000098C0000096C0000094C0000014
:1000900092C0000090C000008EC000008CC0000024
:1000A0008AC0000088C0000086C000000001000077
:1000B000E3001200020000F50022002200001701F8
:1000C0003F00210000070109000300005601040160
:1000D0000309045A0110020309046C011200000113
:1000E000C106001201000200000020C0167C0400BE
:1000F000010102000109022200010100C0320904CD
:1001000000000103010100092111010001223F004B
:100110000705830308000105010906A10175019582
:1001200008050719E029E7150025018102950175E9
:1001300008810395057501050819012905910295A6
:1001400001750391039506750815002568050719C3
:100150000029688100C00403090410034D006600F3
:1001600067004E0061006D006500000012034B0047
:100170006500790062006F00610072006400000099
:1001800011241FBECFEFDAE0DEBFCDBF11E0A0E04B
:10019000B1E0EAE7F9E002C005900D92A230B107A4
:1001A000D9F711E0A2E0B1E001C01D92A131B10781
:1001B000E1F724D1E0C324CFF89481E08093E000FC
:1001C00080E28093D800E9ECF0E0108280E29EE4C7
:1001D0000197F1F71DBA109268001CBC10BE1FBA3F
:1001E00010927A0010926E0010926F0010927100BF
:1001F000109272001082ECEBF0E0108214B817B885
:100200001AB81DB810BA108215B818B81BB81EB8A5
:1002100011BA0C94003F08952098219822982398B1
:10022000509A519A289A299A2A9A2B9A589A599A06
:100230000895589A599A80EA9FE00197F1F71B991F
:1002400002C070E401C070E05898599880EA9FE0BD
:100250000197F1F7189902C060E201C060E01999B6
:1002600002C050E101C050E01A9902C048E001C04C
:1002700040E01B9902C030E801C030E0589A59981C
:1002800080EA9FE00197F1F7189902C022E001C0CF
:1002900020E0199902C084E001C080E093B19695F6
:1002A000969590959170972B962B952B942B932B3D
:1002B000922B982B9093020153B15898599AE0EAE7
:1002C000FFE03197F1F723B1199902C082E001C034
:1002D00080E0209521701A9902C044E001C040E0FE
:1002E0001B9902C038E001C030E0822B842B832BA5
:1002F000809303011092040153FD27C096FF1DC097
:1003000097FF14C095FF09C092FF07C082E0809359
:1003100004019B7D9093020103C081E0809304015E
:10032000809102018F7380930201089584E080938D
:1003300004019F7B90930201089597FF06C088E017
:10034000809304019F77909302010895782F20E015
:1003500030E0F901EA5FFE4F8081781719F46623D7
:1003600059F408C02F5F3F4F2630310591F76623BF
:1003700049F102C01082089560911001662311F1C5
:1003800020E030E0462F50E0CA01022E02C09595D1
:1003900087950A94E2F780FF10C0F901EA5FFE4FEB
:1003A000708381E090E002C0880F991F2A95E2F7E0
:1003B000809586238093100108952F5F3F4F26304C
:1003C000310511F7089520E030E040E061E070E091
:1003D000F901EA5FFE4F8081882341F4CB01022EB0
:1003E00002C0880F991F0A94E2F7482B2F5F3F4FF6
:1003F0002630310569F740931001089580E8809315
:1004000061001092610008DF569A5E9A5CD072D04B
:100410008823E9F380E197E220E931E0F90131979F
:10042000F1F70197D9F75E98CEDF03DF80910401E1
:1004300081FF01C0C1DE60910301617085E186DF4B
:1004400060910301627089E081DF60910301647053
:1004500087E07CDF6091030168708AE077DF60915C
:100460000201617084E072DF60910201627086E1D6
:100470006DDF60910201687084E168DF60910201C4
:1004800060718AE163DF6091020160748CE05EDF7D
:100490006091020160788DE059DF60910201607225
:1004A0008EE054DF6091020164708FE04FDF609155
:1004B000040168708FE14ADF60910401617083E29A
:1004C00045DF1BD0B1CF81E08093D70080EA8093D5
:1004D000D80082E189BD09B400FEFDCF80E9809398
:1004E000D8001092E00010920D018CE08093E200A1
:1004F0007894089580910D01089580910D018823CD
:1005000009F441C02FB7F89483E08093E9009091FB
:10051000E4009E5C33E08091E80085FD0EC02FBFB3
:1005200080910D01882379F18091E400891759F1B8
:100530002FB7F8943093E900EECF809105018093B6
:10054000F1001092F100809106018093F1008091FA
:1005500007018093F100809108018093F100809160
:1005600009018093F10080910A018093F10080914C
:100570000B018093F1008AE38093E80010920E0152
:100580002FBF80E008958FEF08951F920F920FB64E
:100590000F9211242F938F939F938091E1001092DB
:1005A000E100982F83FF0FC01092E90081E0809353
:1005B000EB001092EC0082E28093ED0088E08093E3
:1005C000F00010920D0192FF44C080910D0188232C
:1005D00009F43FC0209100012223D9F180910F013D
:1005E0008F5F80930F0190E083709070892B89F565
:1005F00083E08093E9008091E80085FF2AC0809124
:100600000E018F5F80930E01821719F510920E0173
:10061000809105018093F1001092F1008091060114
:100620008093F100809107018093F100809108018F
:100630008093F100809109018093F10080910A017B
:100640008093F10080910B018093F1008AE3809305
:10065000E8009F918F912F910F900FBE0F901F90E8
:1006600018951F920F920FB60F9211240F931F939C
:100670002F933F934F935F936F937F938F939F93AA
:10068000AF93BF93EF93FF931092E9008091E8003E
:1006900083FF5BC14091F1003091F1008091F10046
:1006A000682F70E02091F100922F80E0682B792B69
:1006B0008091F100A82FB0E02091F100922F80E00E
:1006C000A82BB92B1091F1000091F10082EF8093DB
:1006D000E800363009F05AC023EB30E0A90145505C
:1006E0005040F9013797859194918617970701F546
:1006F000FA01859194918A179B07D1F49A012E5F94
:100700003F4FF901659174912E5F3F4FF90144917C
:10071000212F30E0902F80E0282B392B2F3F3105FF
:1007200019F010F02FEF30E0241758F4422F09C0D1
:10073000295F3F4F495F5F4FF0E0243E3F0789F656
:1007400004C15EEF8091E800282F30E0C901857078
:100750009070892BB9F322FDFBC0342F413208F091
:1007600030E2232FCB0106C0FC010196E491E09317
:10077000F10021502223C1F7630F711D431B5093D9
:10078000E8004423F9F63032E9F2E2C0353061F492
:100790008EEF8093E8008091E80080FFFCCF862FE9
:1007A00080688093E300D4C0393031F5442309F0E8
:1007B00071C060930D018EEF8093E8008DED90E0A5
:1007C00021E02093E900FC010196E491E093EB0025
:1007D000EE2369F0AC014F5F5F4FFC018491809381
:1007E000EC00CA010196FA0134913093ED002F5FBD
:1007F000253039F78EE149C0383051F4403809F0DE
:1008000049C08091E80080FFFCCF80910D017BC042
:100810003323D1F48091E80080FFFCCF423811F0FF
:1008200080E00DC0A093E9008091EB0090E025E00E
:10083000969587952A95E1F781701092E90080934B
:10084000F1001092F1007DC0313011F0333011F51C
:10085000423001F561157105E9F42A2F2F77822FB7
:1008600081508430B8F48EEF8093E8002093E90043
:10087000333009F46AC089E18093EB0081E090E0B5
:1008800002C0880F991F2A95E2F78093EA00109220
:10089000EA005EC0AB2B09F058C0413AB9F53130DF
:1008A00009F58091E80080FFFCCF809105018093DD
:1008B000F1001092F100809106018093F100809187
:1008C00007018093F100809108018093F1008091ED
:1008D00009018093F10080910A018093F1008091D9
:1008E0000B0111C0323039F48091E80080FFFCCF59
:1008F0008091000108C0333041F58091E80080FF0D
:10090000FCCF809101018093F1001BC04132E9F4DA
:10091000393061F48091E80082FFFCCF8091F100D2
:1009200080930C018BEF8093E8000BC03A3029F4E0
:100930007093000110920E0104C03B3031F46093BB
:1009400001018EEF8093E80003C081E28093EB0009
:10095000FF91EF91BF91AF919F918F917F916F9197
:100960005F914F913F912F911F910F910F900FBE6B
:0A0970000F901F901895F894FFCF28
:02097A007D01FD
:00000001FF
